{
  "contractName": "ERC721",
  "abi": [
    {
      "inputs": [
        {
          "internalType": "string",
          "name": "name_",
          "type": "string"
        },
        {
          "internalType": "string",
          "name": "symbol_",
          "type": "string"
        }
      ],
      "stateMutability": "nonpayable",
      "type": "constructor"
    },
    {
      "anonymous": false,
      "inputs": [
        {
          "indexed": true,
          "internalType": "address",
          "name": "owner",
          "type": "address"
        },
        {
          "indexed": true,
          "internalType": "address",
          "name": "approved",
          "type": "address"
        },
        {
          "indexed": true,
          "internalType": "uint256",
          "name": "tokenId",
          "type": "uint256"
        }
      ],
      "name": "Approval",
      "type": "event"
    },
    {
      "anonymous": false,
      "inputs": [
        {
          "indexed": true,
          "internalType": "address",
          "name": "owner",
          "type": "address"
        },
        {
          "indexed": true,
          "internalType": "address",
          "name": "operator",
          "type": "address"
        },
        {
          "indexed": false,
          "internalType": "bool",
          "name": "approved",
          "type": "bool"
        }
      ],
      "name": "ApprovalForAll",
      "type": "event"
    },
    {
      "anonymous": false,
      "inputs": [
        {
          "indexed": true,
          "internalType": "address",
          "name": "from",
          "type": "address"
        },
        {
          "indexed": true,
          "internalType": "address",
          "name": "to",
          "type": "address"
        },
        {
          "indexed": true,
          "internalType": "uint256",
          "name": "tokenId",
          "type": "uint256"
        }
      ],
      "name": "Transfer",
      "type": "event"
    },
    {
      "inputs": [
        {
          "internalType": "bytes4",
          "name": "interfaceId",
          "type": "bytes4"
        }
      ],
      "name": "supportsInterface",
      "outputs": [
        {
          "internalType": "bool",
          "name": "",
          "type": "bool"
        }
      ],
      "stateMutability": "view",
      "type": "function",
      "constant": true
    },
    {
      "inputs": [
        {
          "internalType": "address",
          "name": "owner",
          "type": "address"
        }
      ],
      "name": "balanceOf",
      "outputs": [
        {
          "internalType": "uint256",
          "name": "",
          "type": "uint256"
        }
      ],
      "stateMutability": "view",
      "type": "function",
      "constant": true
    },
    {
      "inputs": [
        {
          "internalType": "uint256",
          "name": "tokenId",
          "type": "uint256"
        }
      ],
      "name": "ownerOf",
      "outputs": [
        {
          "internalType": "address",
          "name": "",
          "type": "address"
        }
      ],
      "stateMutability": "view",
      "type": "function",
      "constant": true
    },
    {
      "inputs": [],
      "name": "name",
      "outputs": [
        {
          "internalType": "string",
          "name": "",
          "type": "string"
        }
      ],
      "stateMutability": "view",
      "type": "function",
      "constant": true
    },
    {
      "inputs": [],
      "name": "symbol",
      "outputs": [
        {
          "internalType": "string",
          "name": "",
          "type": "string"
        }
      ],
      "stateMutability": "view",
      "type": "function",
      "constant": true
    },
    {
      "inputs": [
        {
          "internalType": "uint256",
          "name": "tokenId",
          "type": "uint256"
        }
      ],
      "name": "tokenURI",
      "outputs": [
        {
          "internalType": "string",
          "name": "",
          "type": "string"
        }
      ],
      "stateMutability": "view",
      "type": "function",
      "constant": true
    },
    {
      "inputs": [],
      "name": "getAllTokensHash",
      "outputs": [
        {
          "internalType": "string[]",
          "name": "",
          "type": "string[]"
        }
      ],
      "stateMutability": "view",
      "type": "function",
      "constant": true
    },
    {
      "inputs": [
        {
          "internalType": "address",
          "name": "owner",
          "type": "address"
        }
      ],
      "name": "getMyAllTokenids",
      "outputs": [
        {
          "internalType": "uint256[]",
          "name": "",
          "type": "uint256[]"
        }
      ],
      "stateMutability": "view",
      "type": "function",
      "constant": true
    },
    {
      "inputs": [
        {
          "internalType": "address",
          "name": "owner",
          "type": "address"
        }
      ],
      "name": "getMyAllTokensHash",
      "outputs": [
        {
          "internalType": "string[]",
          "name": "",
          "type": "string[]"
        }
      ],
      "stateMutability": "view",
      "type": "function",
      "constant": true
    },
    {
      "inputs": [],
      "name": "getAllEnableTokenIds",
      "outputs": [
        {
          "internalType": "uint256[]",
          "name": "",
          "type": "uint256[]"
        }
      ],
      "stateMutability": "view",
      "type": "function",
      "constant": true
    },
    {
      "inputs": [
        {
          "internalType": "address",
          "name": "to",
          "type": "address"
        },
        {
          "internalType": "uint256",
          "name": "tokenId",
          "type": "uint256"
        }
      ],
      "name": "approve",
      "outputs": [],
      "stateMutability": "nonpayable",
      "type": "function"
    },
    {
      "inputs": [
        {
          "internalType": "uint256",
          "name": "tokenId",
          "type": "uint256"
        }
      ],
      "name": "getApproved",
      "outputs": [
        {
          "internalType": "address",
          "name": "",
          "type": "address"
        }
      ],
      "stateMutability": "view",
      "type": "function",
      "constant": true
    },
    {
      "inputs": [
        {
          "internalType": "address",
          "name": "operator",
          "type": "address"
        },
        {
          "internalType": "bool",
          "name": "approved",
          "type": "bool"
        }
      ],
      "name": "setApprovalForAll",
      "outputs": [],
      "stateMutability": "nonpayable",
      "type": "function"
    },
    {
      "inputs": [
        {
          "internalType": "address",
          "name": "owner",
          "type": "address"
        },
        {
          "internalType": "address",
          "name": "operator",
          "type": "address"
        }
      ],
      "name": "isApprovedForAll",
      "outputs": [
        {
          "internalType": "bool",
          "name": "",
          "type": "bool"
        }
      ],
      "stateMutability": "view",
      "type": "function",
      "constant": true
    },
    {
      "inputs": [
        {
          "internalType": "address",
          "name": "from",
          "type": "address"
        },
        {
          "internalType": "address",
          "name": "to",
          "type": "address"
        },
        {
          "internalType": "uint256",
          "name": "tokenId",
          "type": "uint256"
        }
      ],
      "name": "transferFrom",
      "outputs": [],
      "stateMutability": "nonpayable",
      "type": "function"
    },
    {
      "inputs": [
        {
          "internalType": "address",
          "name": "from",
          "type": "address"
        },
        {
          "internalType": "address",
          "name": "to",
          "type": "address"
        },
        {
          "internalType": "uint256",
          "name": "tokenId",
          "type": "uint256"
        }
      ],
      "name": "safeTransferFrom",
      "outputs": [],
      "stateMutability": "nonpayable",
      "type": "function"
    },
    {
      "inputs": [
        {
          "internalType": "address",
          "name": "from",
          "type": "address"
        },
        {
          "internalType": "address",
          "name": "to",
          "type": "address"
        },
        {
          "internalType": "uint256",
          "name": "tokenId",
          "type": "uint256"
        },
        {
          "internalType": "bytes",
          "name": "_data",
          "type": "bytes"
        }
      ],
      "name": "safeTransferFrom",
      "outputs": [],
      "stateMutability": "nonpayable",
      "type": "function"
    },
    {
      "inputs": [
        {
          "internalType": "uint256",
          "name": "tokenId",
          "type": "uint256"
        }
      ],
      "name": "_exists",
      "outputs": [
        {
          "internalType": "bool",
          "name": "",
          "type": "bool"
        }
      ],
      "stateMutability": "view",
      "type": "function",
      "constant": true
    },
    {
      "inputs": [],
      "name": "curId",
      "outputs": [
        {
          "internalType": "uint256",
          "name": "",
          "type": "uint256"
        }
      ],
      "stateMutability": "view",
      "type": "function",
      "constant": true
    },
    {
      "inputs": [
        {
          "internalType": "address",
          "name": "to",
          "type": "address"
        },
        {
          "internalType": "string",
          "name": "ipfsHash",
          "type": "string"
        }
      ],
      "name": "mint",
      "outputs": [],
      "stateMutability": "nonpayable",
      "type": "function"
    },
    {
      "inputs": [
        {
          "internalType": "address",
          "name": "buyer",
          "type": "address"
        },
        {
          "internalType": "address payable",
          "name": "seller",
          "type": "address"
        },
        {
          "internalType": "uint256",
          "name": "tokenId",
          "type": "uint256"
        }
      ],
      "name": "purchase",
      "outputs": [],
      "stateMutability": "payable",
      "type": "function",
      "payable": true
    },
    {
      "inputs": [
        {
          "internalType": "uint256",
          "name": "tokenId",
          "type": "uint256"
        }
      ],
      "name": "burn",
      "outputs": [],
      "stateMutability": "nonpayable",
      "type": "function"
    }
  ],
  "bytecode": "0x60806040523480156200001157600080fd5b5060405162003f9038038062003f90833981810160405281019062000037919062000193565b81600190805190602001906200004f92919062000071565b5080600290805190602001906200006892919062000071565b50505062000337565b8280546200007f90620002a3565b90600052602060002090601f016020900481019282620000a35760008555620000ef565b82601f10620000be57805160ff1916838001178555620000ef565b82800160010185558215620000ef579182015b82811115620000ee578251825591602001919060010190620000d1565b5b509050620000fe919062000102565b5090565b5b808211156200011d57600081600090555060010162000103565b5090565b60006200013862000132846200023a565b62000206565b9050828152602081018484840111156200015157600080fd5b6200015e8482856200026d565b509392505050565b600082601f8301126200017857600080fd5b81516200018a84826020860162000121565b91505092915050565b60008060408385031215620001a757600080fd5b600083015167ffffffffffffffff811115620001c257600080fd5b620001d08582860162000166565b925050602083015167ffffffffffffffff811115620001ee57600080fd5b620001fc8582860162000166565b9150509250929050565b6000604051905081810181811067ffffffffffffffff8211171562000230576200022f62000308565b5b8060405250919050565b600067ffffffffffffffff82111562000258576200025762000308565b5b601f19601f8301169050602081019050919050565b60005b838110156200028d57808201518184015260208101905062000270565b838111156200029d576000848401525b50505050565b60006002820490506001821680620002bc57607f821691505b60208210811415620002d357620002d2620002d9565b5b50919050565b7f4e487b7100000000000000000000000000000000000000000000000000000000600052602260045260246000fd5b7f4e487b7100000000000000000000000000000000000000000000000000000000600052604160045260246000fd5b613c4980620003476000396000f3fe6080604052600436106101355760003560e01c80636352211e116100ab578063a22cb4651161006f578063a22cb4651461043f578063b88d4fde14610468578063c87b56dd14610491578063d0def521146104ce578063e985e9c5146104f7578063f8e76cc01461053457610135565b80636352211e14610353578063640441561461039057806370a08231146103ac57806395d89b41146103e9578063990a72cb1461041457610135565b806323b872dd116100fd57806323b872dd146102455780632a4034d71461026e57806342842e0e146102ab57806342966c68146102d45780634967bb35146102fd5780635b40a5841461032857610135565b806301ffc9a71461013a57806306fdde0314610177578063081812fc146101a2578063095ea7b3146101df5780631fe9c06214610208575b600080fd5b34801561014657600080fd5b50610161600480360381019061015c9190612cc7565b610571565b60405161016e91906135c1565b60405180910390f35b34801561018357600080fd5b5061018c610653565b60405161019991906135dc565b60405180910390f35b3480156101ae57600080fd5b506101c960048036038101906101c49190612d19565b6106e5565b6040516101d69190613516565b60405180910390f35b3480156101eb57600080fd5b5061020660048036038101906102019190612c8b565b61076a565b005b34801561021457600080fd5b5061022f600480360381019061022a9190612a79565b610882565b60405161023c919061359f565b60405180910390f35b34801561025157600080fd5b5061026c60048036038101906102679190612b2d565b610919565b005b34801561027a57600080fd5b5061029560048036038101906102909190612a79565b610979565b6040516102a2919061357d565b60405180910390f35b3480156102b757600080fd5b506102d260048036038101906102cd9190612b2d565b610c09565b005b3480156102e057600080fd5b506102fb60048036038101906102f69190612d19565b610c29565b005b34801561030957600080fd5b50610312611213565b60405161031f919061357d565b60405180910390f35b34801561033457600080fd5b5061033d6113ea565b60405161034a91906137fe565b60405180910390f35b34801561035f57600080fd5b5061037a60048036038101906103759190612d19565b6113fb565b6040516103879190613516565b60405180910390f35b6103aa60048036038101906103a59190612ade565b6114ad565b005b3480156103b857600080fd5b506103d360048036038101906103ce9190612a79565b6115f5565b6040516103e091906137fe565b60405180910390f35b3480156103f557600080fd5b506103fe6116ad565b60405161040b91906135dc565b60405180910390f35b34801561042057600080fd5b5061042961173f565b604051610436919061359f565b60405180910390f35b34801561044b57600080fd5b5061046660048036038101906104619190612bf7565b611797565b005b34801561047457600080fd5b5061048f600480360381019061048a9190612b7c565b611918565b005b34801561049d57600080fd5b506104b860048036038101906104b39190612d19565b61197a565b6040516104c591906135dc565b60405180910390f35b3480156104da57600080fd5b506104f560048036038101906104f09190612c33565b611a70565b005b34801561050357600080fd5b5061051e60048036038101906105199190612aa2565b611d4b565b60405161052b91906135c1565b60405180910390f35b34801561054057600080fd5b5061055b60048036038101906105569190612d19565b611ddf565b60405161056891906135c1565b60405180910390f35b60007f80ac58cd000000000000000000000000000000000000000000000000000000007bffffffffffffffffffffffffffffffffffffffffffffffffffffffff1916827bffffffffffffffffffffffffffffffffffffffffffffffffffffffff1916148061063c57507f5b5e139f000000000000000000000000000000000000000000000000000000007bffffffffffffffffffffffffffffffffffffffffffffffffffffffff1916827bffffffffffffffffffffffffffffffffffffffffffffffffffffffff1916145b8061064c575061064b82611e4b565b5b9050919050565b60606001805461066290613a87565b80601f016020809104026020016040519081016040528092919081815260200182805461068e90613a87565b80156106db5780601f106106b0576101008083540402835291602001916106db565b820191906000526020600020905b8154815290600101906020018083116106be57829003601f168201915b5050505050905090565b60006106f082611ddf565b61072f576040517f08c379a00000000000000000000000000000000000000000000000000000000081526004016107269061371e565b60405180910390fd5b6005600083815260200190815260200160002060009054906101000a900473ffffffffffffffffffffffffffffffffffffffff169050919050565b6000610775826113fb565b90508073ffffffffffffffffffffffffffffffffffffffff168373ffffffffffffffffffffffffffffffffffffffff1614156107e6576040517f08c379a00000000000000000000000000000000000000000000000000000000081526004016107dd9061377e565b60405180910390fd5b8073ffffffffffffffffffffffffffffffffffffffff16610805611eb5565b73ffffffffffffffffffffffffffffffffffffffff16148061083457506108338161082e611eb5565b611d4b565b5b610873576040517f08c379a000000000000000000000000000000000000000000000000000000000815260040161086a9061367e565b60405180910390fd5b61087d8383611ebd565b505050565b6060600960008373ffffffffffffffffffffffffffffffffffffffff1673ffffffffffffffffffffffffffffffffffffffff16815260200190815260200160002080548060200260200160405190810160405280929190818152602001828054801561090d57602002820191906000526020600020905b8154815260200190600101908083116108f9575b50505050509050919050565b61092a610924611eb5565b82611f76565b610969576040517f08c379a0000000000000000000000000000000000000000000000000000000008152600401610960906137be565b60405180910390fd5b610974838383612054565b505050565b60606000600960008473ffffffffffffffffffffffffffffffffffffffff1673ffffffffffffffffffffffffffffffffffffffff1681526020019081526020016000208054905067ffffffffffffffff8111156109ff577f4e487b7100000000000000000000000000000000000000000000000000000000600052604160045260246000fd5b604051908082528060200260200182016040528015610a3257816020015b6060815260200190600190039081610a1d5790505b50905060005b600960008573ffffffffffffffffffffffffffffffffffffffff1673ffffffffffffffffffffffffffffffffffffffff16815260200190815260200160002080549050811015610bff57600060076000600960008873ffffffffffffffffffffffffffffffffffffffff1673ffffffffffffffffffffffffffffffffffffffff1681526020019081526020016000208481548110610aff577f4e487b7100000000000000000000000000000000000000000000000000000000600052603260045260246000fd5b906000526020600020015481526020019081526020016000206001018054610b2690613a87565b80601f0160208091040260200160405190810160405280929190818152602001828054610b5290613a87565b8015610b9f5780601f10610b7457610100808354040283529160200191610b9f565b820191906000526020600020905b815481529060010190602001808311610b8257829003601f168201915b5050505050905080838381518110610be0577f4e487b7100000000000000000000000000000000000000000000000000000000600052603260045260246000fd5b6020026020010181905250508080610bf790613ab9565b915050610a38565b5080915050919050565b610c2483838360405180602001604052806000815250611918565b505050565b610c3281611ddf565b610c71576040517f08c379a0000000000000000000000000000000000000000000000000000000008152600401610c689061365e565b60405180910390fd5b6000610c7c826113fb565b90503373ffffffffffffffffffffffffffffffffffffffff168173ffffffffffffffffffffffffffffffffffffffff1614610cec576040517f08c379a0000000000000000000000000000000000000000000000000000000008152600401610ce39061379e565b60405180910390fd5b610cf7600083611ebd565b6001600460008373ffffffffffffffffffffffffffffffffffffffff1673ffffffffffffffffffffffffffffffffffffffff1681526020019081526020016000206000828254610d47919061398b565b925050819055506003600083815260200190815260200160002060006101000a81549073ffffffffffffffffffffffffffffffffffffffff021916905560005b600960008373ffffffffffffffffffffffffffffffffffffffff1673ffffffffffffffffffffffffffffffffffffffff168152602001908152602001600020805490508110156110545782600960008473ffffffffffffffffffffffffffffffffffffffff1673ffffffffffffffffffffffffffffffffffffffff1681526020019081526020016000208281548110610e49577f4e487b7100000000000000000000000000000000000000000000000000000000600052603260045260246000fd5b9060005260206000200154141561104157600960008373ffffffffffffffffffffffffffffffffffffffff1673ffffffffffffffffffffffffffffffffffffffff1681526020019081526020016000206001600960008573ffffffffffffffffffffffffffffffffffffffff1673ffffffffffffffffffffffffffffffffffffffff16815260200190815260200160002080549050610ee8919061398b565b81548110610f1f577f4e487b7100000000000000000000000000000000000000000000000000000000600052603260045260246000fd5b9060005260206000200154600960008473ffffffffffffffffffffffffffffffffffffffff1673ffffffffffffffffffffffffffffffffffffffff1681526020019081526020016000208281548110610fa1577f4e487b7100000000000000000000000000000000000000000000000000000000600052603260045260246000fd5b9060005260206000200181905550600960008373ffffffffffffffffffffffffffffffffffffffff1673ffffffffffffffffffffffffffffffffffffffff168152602001908152602001600020805480611024577f4e487b7100000000000000000000000000000000000000000000000000000000600052603160045260246000fd5b600190038181906000526020600020016000905590555050611210565b808061104c90613ab9565b915050610d87565b5060006001600880549050611069919061398b565b90506000600882815481106110a7577f4e487b7100000000000000000000000000000000000000000000000000000000600052603260045260246000fd5b90600052602060002001549050600060076000868152602001908152602001600020600001549050816008828154811061110a577f4e487b7100000000000000000000000000000000000000000000000000000000600052603260045260246000fd5b90600052602060002001819055506008805480611150577f4e487b7100000000000000000000000000000000000000000000000000000000600052603160045260246000fd5b60019003818190600052602060002001600090559055806007600084815260200190815260200160002060000181905550600760008681526020019081526020016000206000808201600090556001820160006111ad9190612866565b505084600073ffffffffffffffffffffffffffffffffffffffff168573ffffffffffffffffffffffffffffffffffffffff167fddf252ad1be2c89b69c2b068fc378daa952ba7f163c4a11628f55a4df523b3ef60405160405180910390a4505050505b50565b6060600060088054905067ffffffffffffffff81111561125c577f4e487b7100000000000000000000000000000000000000000000000000000000600052604160045260246000fd5b60405190808252806020026020018201604052801561128f57816020015b606081526020019060019003908161127a5790505b50905060005b6008805490508110156113e257600060076000600884815481106112e2577f4e487b7100000000000000000000000000000000000000000000000000000000600052603260045260246000fd5b90600052602060002001548152602001908152602001600020600101805461130990613a87565b80601f016020809104026020016040519081016040528092919081815260200182805461133590613a87565b80156113825780601f1061135757610100808354040283529160200191611382565b820191906000526020600020905b81548152906001019060200180831161136557829003601f168201915b50505050509050808383815181106113c3577f4e487b7100000000000000000000000000000000000000000000000000000000600052603260045260246000fd5b60200260200101819052505080806113da90613ab9565b915050611295565b508091505090565b60006113f660006125d6565b905090565b6000806003600084815260200190815260200160002060009054906101000a900473ffffffffffffffffffffffffffffffffffffffff169050600073ffffffffffffffffffffffffffffffffffffffff168173ffffffffffffffffffffffffffffffffffffffff1614156114a4576040517f08c379a000000000000000000000000000000000000000000000000000000000815260040161149b906136be565b60405180910390fd5b80915050919050565b8273ffffffffffffffffffffffffffffffffffffffff163373ffffffffffffffffffffffffffffffffffffffff16146114e557600080fd5b8173ffffffffffffffffffffffffffffffffffffffff163373ffffffffffffffffffffffffffffffffffffffff161415611554576040517f08c379a000000000000000000000000000000000000000000000000000000000815260040161154b906137de565b60405180910390fd5b61155d816113fb565b73ffffffffffffffffffffffffffffffffffffffff168273ffffffffffffffffffffffffffffffffffffffff161461159457600080fd5b61159e8382611ebd565b8173ffffffffffffffffffffffffffffffffffffffff166108fc349081150290604051600060405180830381858888f193505050501580156115e4573d6000803e3d6000fd5b506115f0828483610c09565b505050565b60008073ffffffffffffffffffffffffffffffffffffffff168273ffffffffffffffffffffffffffffffffffffffff161415611666576040517f08c379a000000000000000000000000000000000000000000000000000000000815260040161165d9061369e565b60405180910390fd5b600460008373ffffffffffffffffffffffffffffffffffffffff1673ffffffffffffffffffffffffffffffffffffffff168152602001908152602001600020549050919050565b6060600280546116bc90613a87565b80601f01602080910402602001604051908101604052809291908181526020018280546116e890613a87565b80156117355780601f1061170a57610100808354040283529160200191611735565b820191906000526020600020905b81548152906001019060200180831161171857829003601f168201915b5050505050905090565b6060600880548060200260200160405190810160405280929190818152602001828054801561178d57602002820191906000526020600020905b815481526020019060010190808311611779575b5050505050905090565b61179f611eb5565b73ffffffffffffffffffffffffffffffffffffffff168273ffffffffffffffffffffffffffffffffffffffff16141561180d576040517f08c379a00000000000000000000000000000000000000000000000000000000081526004016118049061363e565b60405180910390fd5b806006600061181a611eb5565b73ffffffffffffffffffffffffffffffffffffffff1673ffffffffffffffffffffffffffffffffffffffff16815260200190815260200160002060008473ffffffffffffffffffffffffffffffffffffffff1673ffffffffffffffffffffffffffffffffffffffff16815260200190815260200160002060006101000a81548160ff0219169083151502179055508173ffffffffffffffffffffffffffffffffffffffff166118c7611eb5565b73ffffffffffffffffffffffffffffffffffffffff167f17307eab39ab6107e8899845ad3d59bd9653f200f220920489ca2b5937696c318360405161190c91906135c1565b60405180910390a35050565b611929611923611eb5565b83611f76565b611968576040517f08c379a000000000000000000000000000000000000000000000000000000000815260040161195f906137be565b60405180910390fd5b611974848484846125e4565b50505050565b606061198582611ddf565b6119c4576040517f08c379a00000000000000000000000000000000000000000000000000000000081526004016119bb9061375e565b60405180910390fd5b60006007600084815260200190815260200160002060010180546119e790613a87565b80601f0160208091040260200160405190810160405280929190818152602001828054611a1390613a87565b8015611a605780601f10611a3557610100808354040283529160200191611a60565b820191906000526020600020905b815481529060010190602001808311611a4357829003601f168201915b5050505050905080915050919050565b600073ffffffffffffffffffffffffffffffffffffffff168373ffffffffffffffffffffffffffffffffffffffff161415611ae0576040517f08c379a0000000000000000000000000000000000000000000000000000000008152600401611ad7906136fe565b60405180910390fd5b8273ffffffffffffffffffffffffffffffffffffffff163373ffffffffffffffffffffffffffffffffffffffff1614611b1857600080fd5b6000611b2460006125d6565b9050611b306000612640565b6000600760008381526020019081526020016000209050336003600084815260200190815260200160002060006101000a81548173ffffffffffffffffffffffffffffffffffffffff021916908373ffffffffffffffffffffffffffffffffffffffff1602179055506001600460008773ffffffffffffffffffffffffffffffffffffffff1673ffffffffffffffffffffffffffffffffffffffff1681526020019081526020016000206000828254611be99190613935565b92505081905550600960008673ffffffffffffffffffffffffffffffffffffffff1673ffffffffffffffffffffffffffffffffffffffff168152602001908152602001600020829080600181540180825580915050600190039060005260206000200160009091909190915055611ca5828286868080601f016020809104026020016040519081016040528093929190818152602001838380828437600081840152601f19601f82011690508083019250505050505050612656565b60088290806001815401808255809150506001900390600052602060002001600090919091909150556001600880549050611ce0919061398b565b8160000181905550818573ffffffffffffffffffffffffffffffffffffffff16600073ffffffffffffffffffffffffffffffffffffffff167fddf252ad1be2c89b69c2b068fc378daa952ba7f163c4a11628f55a4df523b3ef60405160405180910390a45050505050565b6000600660008473ffffffffffffffffffffffffffffffffffffffff1673ffffffffffffffffffffffffffffffffffffffff16815260200190815260200160002060008373ffffffffffffffffffffffffffffffffffffffff1673ffffffffffffffffffffffffffffffffffffffff16815260200190815260200160002060009054906101000a900460ff16905092915050565b60008073ffffffffffffffffffffffffffffffffffffffff166003600084815260200190815260200160002060009054906101000a900473ffffffffffffffffffffffffffffffffffffffff1673ffffffffffffffffffffffffffffffffffffffff1614159050919050565b60007f01ffc9a7000000000000000000000000000000000000000000000000000000007bffffffffffffffffffffffffffffffffffffffffffffffffffffffff1916827bffffffffffffffffffffffffffffffffffffffffffffffffffffffff1916149050919050565b600033905090565b816005600083815260200190815260200160002060006101000a81548173ffffffffffffffffffffffffffffffffffffffff021916908373ffffffffffffffffffffffffffffffffffffffff160217905550808273ffffffffffffffffffffffffffffffffffffffff16611f30836113fb565b73ffffffffffffffffffffffffffffffffffffffff167f8c5be1e5ebec7d5bd14f71427d1e84f3dd0314c0f7b2291e5b200ac8c7c3b92560405160405180910390a45050565b6000611f8182611ddf565b611fc0576040517f08c379a0000000000000000000000000000000000000000000000000000000008152600401611fb79061365e565b60405180910390fd5b6000611fcb836113fb565b90508073ffffffffffffffffffffffffffffffffffffffff168473ffffffffffffffffffffffffffffffffffffffff16148061203a57508373ffffffffffffffffffffffffffffffffffffffff16612022846106e5565b73ffffffffffffffffffffffffffffffffffffffff16145b8061204b575061204a8185611d4b565b5b91505092915050565b8273ffffffffffffffffffffffffffffffffffffffff16612074826113fb565b73ffffffffffffffffffffffffffffffffffffffff16146120ca576040517f08c379a00000000000000000000000000000000000000000000000000000000081526004016120c19061373e565b60405180910390fd5b600073ffffffffffffffffffffffffffffffffffffffff168273ffffffffffffffffffffffffffffffffffffffff16141561213a576040517f08c379a00000000000000000000000000000000000000000000000000000000081526004016121319061361e565b60405180910390fd5b612145600082611ebd565b6001600460008573ffffffffffffffffffffffffffffffffffffffff1673ffffffffffffffffffffffffffffffffffffffff1681526020019081526020016000206000828254612195919061398b565b925050819055506001600460008473ffffffffffffffffffffffffffffffffffffffff1673ffffffffffffffffffffffffffffffffffffffff16815260200190815260200160002060008282546121ec9190613935565b92505081905550816003600083815260200190815260200160002060006101000a81548173ffffffffffffffffffffffffffffffffffffffff021916908373ffffffffffffffffffffffffffffffffffffffff16021790555060005b600960008573ffffffffffffffffffffffffffffffffffffffff1673ffffffffffffffffffffffffffffffffffffffff1681526020019081526020016000208054905081101561250f5781600960008673ffffffffffffffffffffffffffffffffffffffff1673ffffffffffffffffffffffffffffffffffffffff168152602001908152602001600020828154811061230a577f4e487b7100000000000000000000000000000000000000000000000000000000600052603260045260246000fd5b906000526020600020015414156124fc57600960008573ffffffffffffffffffffffffffffffffffffffff1673ffffffffffffffffffffffffffffffffffffffff1681526020019081526020016000206001600960008773ffffffffffffffffffffffffffffffffffffffff1673ffffffffffffffffffffffffffffffffffffffff168152602001908152602001600020805490506123a9919061398b565b815481106123e0577f4e487b7100000000000000000000000000000000000000000000000000000000600052603260045260246000fd5b9060005260206000200154600960008673ffffffffffffffffffffffffffffffffffffffff1673ffffffffffffffffffffffffffffffffffffffff1681526020019081526020016000208281548110612462577f4e487b7100000000000000000000000000000000000000000000000000000000600052603260045260246000fd5b9060005260206000200181905550600960008573ffffffffffffffffffffffffffffffffffffffff1673ffffffffffffffffffffffffffffffffffffffff1681526020019081526020016000208054806124e5577f4e487b7100000000000000000000000000000000000000000000000000000000600052603160045260246000fd5b600190038181906000526020600020016000905590555b808061250790613ab9565b915050612248565b50600960008373ffffffffffffffffffffffffffffffffffffffff1673ffffffffffffffffffffffffffffffffffffffff168152602001908152602001600020819080600181540180825580915050600190039060005260206000200160009091909190915055808273ffffffffffffffffffffffffffffffffffffffff168473ffffffffffffffffffffffffffffffffffffffff167fddf252ad1be2c89b69c2b068fc378daa952ba7f163c4a11628f55a4df523b3ef60405160405180910390a4505050565b600081600001549050919050565b6125ef848484612054565b6125fb848484846126bc565b61263a576040517f08c379a0000000000000000000000000000000000000000000000000000000008152600401612631906135fe565b60405180910390fd5b50505050565b6001816000016000828254019250508190555050565b61265f83611ddf565b61269e576040517f08c379a0000000000000000000000000000000000000000000000000000000008152600401612695906136de565b60405180910390fd5b808260010190805190602001906126b69291906128a6565b50505050565b60006126dd8473ffffffffffffffffffffffffffffffffffffffff16612853565b15612846578373ffffffffffffffffffffffffffffffffffffffff1663150b7a02612706611eb5565b8786866040518563ffffffff1660e01b81526004016127289493929190613531565b602060405180830381600087803b15801561274257600080fd5b505af192505050801561277357506040513d601f19601f820116820180604052508101906127709190612cf0565b60015b6127f6573d80600081146127a3576040519150601f19603f3d011682016040523d82523d6000602084013e6127a8565b606091505b506000815114156127ee576040517f08c379a00000000000000000000000000000000000000000000000000000000081526004016127e5906135fe565b60405180910390fd5b805181602001fd5b63150b7a0260e01b7bffffffffffffffffffffffffffffffffffffffffffffffffffffffff1916817bffffffffffffffffffffffffffffffffffffffffffffffffffffffff19161491505061284b565b600190505b949350505050565b600080823b905060008111915050919050565b50805461287290613a87565b6000825580601f1061288457506128a3565b601f0160209004906000526020600020908101906128a2919061292c565b5b50565b8280546128b290613a87565b90600052602060002090601f0160209004810192826128d4576000855561291b565b82601f106128ed57805160ff191683800117855561291b565b8280016001018555821561291b579182015b8281111561291a5782518255916020019190600101906128ff565b5b509050612928919061292c565b5090565b5b8082111561294557600081600090555060010161292d565b5090565b600061295c6129578461384a565b613819565b90508281526020810184848401111561297457600080fd5b61297f848285613a45565b509392505050565b60008135905061299681613ba0565b92915050565b6000813590506129ab81613bb7565b92915050565b6000813590506129c081613bce565b92915050565b6000813590506129d581613be5565b92915050565b6000815190506129ea81613be5565b92915050565b600082601f830112612a0157600080fd5b8135612a11848260208601612949565b91505092915050565b60008083601f840112612a2c57600080fd5b8235905067ffffffffffffffff811115612a4557600080fd5b602083019150836001820283011115612a5d57600080fd5b9250929050565b600081359050612a7381613bfc565b92915050565b600060208284031215612a8b57600080fd5b6000612a9984828501612987565b91505092915050565b60008060408385031215612ab557600080fd5b6000612ac385828601612987565b9250506020612ad485828601612987565b9150509250929050565b600080600060608486031215612af357600080fd5b6000612b0186828701612987565b9350506020612b128682870161299c565b9250506040612b2386828701612a64565b9150509250925092565b600080600060608486031215612b4257600080fd5b6000612b5086828701612987565b9350506020612b6186828701612987565b9250506040612b7286828701612a64565b9150509250925092565b60008060008060808587031215612b9257600080fd5b6000612ba087828801612987565b9450506020612bb187828801612987565b9350506040612bc287828801612a64565b925050606085013567ffffffffffffffff811115612bdf57600080fd5b612beb878288016129f0565b91505092959194509250565b60008060408385031215612c0a57600080fd5b6000612c1885828601612987565b9250506020612c29858286016129b1565b9150509250929050565b600080600060408486031215612c4857600080fd5b6000612c5686828701612987565b935050602084013567ffffffffffffffff811115612c7357600080fd5b612c7f86828701612a1a565b92509250509250925092565b60008060408385031215612c9e57600080fd5b6000612cac85828601612987565b9250506020612cbd85828601612a64565b9150509250929050565b600060208284031215612cd957600080fd5b6000612ce7848285016129c6565b91505092915050565b600060208284031215612d0257600080fd5b6000612d10848285016129db565b91505092915050565b600060208284031215612d2b57600080fd5b6000612d3984828501612a64565b91505092915050565b6000612d4e8383612e98565b905092915050565b6000612d6283836134f8565b60208301905092915050565b612d77816139bf565b82525050565b6000612d888261389a565b612d9281856138e0565b935083602082028501612da48561387a565b8060005b85811015612de05784840389528151612dc18582612d42565b9450612dcc836138c6565b925060208a01995050600181019050612da8565b50829750879550505050505092915050565b6000612dfd826138a5565b612e0781856138f1565b9350612e128361388a565b8060005b83811015612e43578151612e2a8882612d56565b9750612e35836138d3565b925050600181019050612e16565b5085935050505092915050565b612e59816139e3565b82525050565b6000612e6a826138b0565b612e748185613902565b9350612e84818560208601613a54565b612e8d81613b8f565b840191505092915050565b6000612ea3826138bb565b612ead8185613913565b9350612ebd818560208601613a54565b612ec681613b8f565b840191505092915050565b6000612edc826138bb565b612ee68185613924565b9350612ef6818560208601613a54565b612eff81613b8f565b840191505092915050565b6000612f17603283613924565b91507f4552433732313a207472616e7366657220746f206e6f6e20455243373231526560008301527f63656976657220696d706c656d656e74657200000000000000000000000000006020830152604082019050919050565b6000612f7d602483613924565b91507f4552433732313a207472616e7366657220746f20746865207a65726f2061646460008301527f72657373000000000000000000000000000000000000000000000000000000006020830152604082019050919050565b6000612fe3601983613924565b91507f4552433732313a20617070726f766520746f2063616c6c6572000000000000006000830152602082019050919050565b6000613023602c83613924565b91507f4552433732313a206f70657261746f7220717565727920666f72206e6f6e657860008301527f697374656e7420746f6b656e00000000000000000000000000000000000000006020830152604082019050919050565b6000613089603883613924565b91507f4552433732313a20617070726f76652063616c6c6572206973206e6f74206f7760008301527f6e6572206e6f7220617070726f76656420666f7220616c6c00000000000000006020830152604082019050919050565b60006130ef602a83613924565b91507f4552433732313a2062616c616e636520717565727920666f7220746865207a6560008301527f726f2061646472657373000000000000000000000000000000000000000000006020830152604082019050919050565b6000613155602983613924565b91507f4552433732313a206f776e657220717565727920666f72206e6f6e657869737460008301527f656e7420746f6b656e00000000000000000000000000000000000000000000006020830152604082019050919050565b60006131bb602e83613924565b91507f45524337323155524953746f726167653a2055524920736574206f66206e6f6e60008301527f6578697374656e7420746f6b656e0000000000000000000000000000000000006020830152604082019050919050565b6000613221602083613924565b91507f4552433732313a206d696e7420746f20746865207a65726f20616464726573736000830152602082019050919050565b6000613261602c83613924565b91507f4552433732313a20617070726f76656420717565727920666f72206e6f6e657860008301527f697374656e7420746f6b656e00000000000000000000000000000000000000006020830152604082019050919050565b60006132c7602983613924565b91507f4552433732313a207472616e73666572206f6620746f6b656e2074686174206960008301527f73206e6f74206f776e00000000000000000000000000000000000000000000006020830152604082019050919050565b600061332d602f83613924565b91507f4552433732314d657461646174613a2055524920717565727920666f72206e6f60008301527f6e6578697374656e7420746f6b656e00000000000000000000000000000000006020830152604082019050919050565b6000613393602183613924565b91507f4552433732313a20617070726f76616c20746f2063757272656e74206f776e6560008301527f72000000000000000000000000000000000000000000000000000000000000006020830152604082019050919050565b60006133f9602883613924565b91507f6d73672e73656e646572206973204e4f5420746865206f776e6572206f66207460008301527f686520746f6b656e0000000000000000000000000000000000000000000000006020830152604082019050919050565b600061345f603183613924565b91507f4552433732313a207472616e736665722063616c6c6572206973206e6f74206f60008301527f776e6572206e6f7220617070726f7665640000000000000000000000000000006020830152604082019050919050565b60006134c5601c83613924565b91507f796f752063616e27742062757920796f7572206f776e20746f6b656e000000006000830152602082019050919050565b61350181613a3b565b82525050565b61351081613a3b565b82525050565b600060208201905061352b6000830184612d6e565b92915050565b60006080820190506135466000830187612d6e565b6135536020830186612d6e565b6135606040830185613507565b81810360608301526135728184612e5f565b905095945050505050565b600060208201905081810360008301526135978184612d7d565b905092915050565b600060208201905081810360008301526135b98184612df2565b905092915050565b60006020820190506135d66000830184612e50565b92915050565b600060208201905081810360008301526135f68184612ed1565b905092915050565b6000602082019050818103600083015261361781612f0a565b9050919050565b6000602082019050818103600083015261363781612f70565b9050919050565b6000602082019050818103600083015261365781612fd6565b9050919050565b6000602082019050818103600083015261367781613016565b9050919050565b600060208201905081810360008301526136978161307c565b9050919050565b600060208201905081810360008301526136b7816130e2565b9050919050565b600060208201905081810360008301526136d781613148565b9050919050565b600060208201905081810360008301526136f7816131ae565b9050919050565b6000602082019050818103600083015261371781613214565b9050919050565b6000602082019050818103600083015261373781613254565b9050919050565b60006020820190508181036000830152613757816132ba565b9050919050565b6000602082019050818103600083015261377781613320565b9050919050565b6000602082019050818103600083015261379781613386565b9050919050565b600060208201905081810360008301526137b7816133ec565b9050919050565b600060208201905081810360008301526137d781613452565b9050919050565b600060208201905081810360008301526137f7816134b8565b9050919050565b60006020820190506138136000830184613507565b92915050565b6000604051905081810181811067ffffffffffffffff821117156138405761383f613b60565b5b8060405250919050565b600067ffffffffffffffff82111561386557613864613b60565b5b601f19601f8301169050602081019050919050565b6000819050602082019050919050565b6000819050602082019050919050565b600081519050919050565b600081519050919050565b600081519050919050565b600081519050919050565b6000602082019050919050565b6000602082019050919050565b600082825260208201905092915050565b600082825260208201905092915050565b600082825260208201905092915050565b600082825260208201905092915050565b600082825260208201905092915050565b600061394082613a3b565b915061394b83613a3b565b9250827fffffffffffffffffffffffffffffffffffffffffffffffffffffffffffffffff038211156139805761397f613b02565b5b828201905092915050565b600061399682613a3b565b91506139a183613a3b565b9250828210156139b4576139b3613b02565b5b828203905092915050565b60006139ca82613a1b565b9050919050565b60006139dc82613a1b565b9050919050565b60008115159050919050565b60007fffffffff0000000000000000000000000000000000000000000000000000000082169050919050565b600073ffffffffffffffffffffffffffffffffffffffff82169050919050565b6000819050919050565b82818337600083830152505050565b60005b83811015613a72578082015181840152602081019050613a57565b83811115613a81576000848401525b50505050565b60006002820490506001821680613a9f57607f821691505b60208210811415613ab357613ab2613b31565b5b50919050565b6000613ac482613a3b565b91507fffffffffffffffffffffffffffffffffffffffffffffffffffffffffffffffff821415613af757613af6613b02565b5b600182019050919050565b7f4e487b7100000000000000000000000000000000000000000000000000000000600052601160045260246000fd5b7f4e487b7100000000000000000000000000000000000000000000000000000000600052602260045260246000fd5b7f4e487b7100000000000000000000000000000000000000000000000000000000600052604160045260246000fd5b6000601f19601f8301169050919050565b613ba9816139bf565b8114613bb457600080fd5b50565b613bc0816139d1565b8114613bcb57600080fd5b50565b613bd7816139e3565b8114613be257600080fd5b50565b613bee816139ef565b8114613bf957600080fd5b50565b613c0581613a3b565b8114613c1057600080fd5b5056fea2646970667358221220048c0379713bf42e3b3211dbf7b10e2217ff059d5c0db830467d2891c88d0c2964736f6c63430008000033",
  "immutableReferences": {},
  "source": "// SPDX-License-Identifier: MIT\n\npragma solidity ^0.8.0;\n\nimport \"./IERC721.sol\";\nimport \"./IERC721Receiver.sol\";\nimport \"./IERC721Metadata.sol\";\nimport \"./Address.sol\";\nimport \"./SafeMath.sol\";\nimport \"./Context.sol\";\nimport \"./Strings.sol\";\nimport \"./ERC165.sol\";\nimport \"./Counters.sol\";\n\n/**\n * @dev Implementation of https://eips.ethereum.org/EIPS/eip-721[ERC721] Non-Fungible Token Standard, including\n * the Metadata extension, but not including the Enumerable extension, which is available separately as\n * {ERC721Enumerable}.\n */\n\ncontract ERC721 is Context, ERC165, IERC721, IERC721Metadata {\n    using Address for address;\n    using Strings for uint256;\n    using Counters for Counters.Counter;\n\n    Counters.Counter private _tokenIds;\n    // Token name\n    string private _name;\n\n    // Token symbol\n    string private _symbol;\n\n    // Mapping from token ID to owner address\n    mapping(uint256 => address) private _owners;\n\n    // Mapping owner address to token count\n    mapping(address => uint256) private _balances;\n\n    // Mapping from token ID to approved address\n    mapping(uint256 => address) private _tokenApprovals;\n\n    // Mapping from owner to operator approvals\n    mapping(address => mapping(address => bool)) private _operatorApprovals;\n\n    //ipfshash  \n    mapping(uint256 => asset) private _tokenURIs;\n\n    struct asset {\n        uint tokenIdListIndex;\n        string ipfsHash;\n    }\n\n    uint256 [] private _tokenIdList;\n\n    mapping(address => uint256 [] ) private _myAllTokenIds;\n\n    /**\n     * @dev Initializes the contract by setting a `name` and a `symbol` to the token collection.\n     */\n    constructor(string memory name_, string memory symbol_) {\n        _name = name_;\n        _symbol = symbol_;\n    }\n\n    /**\n     * @dev See {IERC165-supportsInterface}.\n     */\n    function supportsInterface(bytes4 interfaceId) public view virtual override(ERC165, IERC165) returns (bool) {\n        return\n        interfaceId == type(IERC721).interfaceId ||\n        interfaceId == type(IERC721Metadata).interfaceId ||\n        super.supportsInterface(interfaceId);\n    }\n\n    /**\n     * @dev See {IERC721-balanceOf}.\n     */\n    function balanceOf(address owner) public view virtual override returns (uint256) {\n        require(owner != address(0), \"ERC721: balance query for the zero address\");\n        return _balances[owner];\n    }\n\n    /**\n     * @dev See {IERC721-ownerOf}.\n     */\n    function ownerOf(uint256 tokenId) public view virtual override returns (address) {\n        address owner = _owners[tokenId];\n        require(owner != address(0), \"ERC721: owner query for nonexistent token\");\n        return owner;\n    }\n    /**\n     * @dev See {IERC721Metadata-name}.\n     */\n    function name() public view virtual override returns (string memory) {\n        return _name;\n    }\n\n    /**\n     * @dev See {IERC721Metadata-symbol}.\n     */\n    function symbol() public view virtual override returns (string memory) {\n        return _symbol;\n    }\n\n    /**\n     * @dev See {IERC721Metadata-tokenURI}.\n     */\n    function tokenURI(uint256 tokenId) public view virtual override returns (string memory) {\n        require(_exists(tokenId), \"ERC721Metadata: URI query for nonexistent token\");\n\n        string memory ipfsHashAddr = _tokenURIs[tokenId].ipfsHash;\n        /*\n        string memory base = _baseURI();\n        \n        if (bytes(base).length == 0) {\n            return ipfsHashAddr;\n        }\n        // If both are set, concatenate the baseURI and tokenURI (via abi.encodePacked).\n        if (bytes(ipfsHashAddr).length > 0) {\n            return string(abi.encodePacked(base, ipfsHashAddr));\n        }\n\n        return bytes(base).length > 0 ? string(abi.encodePacked(base, tokenId.toString())) : \"\";\n\n        */\n\n        return ipfsHashAddr;\n    }\n\n    function getAllTokensHash() public view returns (string [] memory) {\n        string [] memory result = new string[](_tokenIdList.length);\n\n        for(uint i = 0 ; i < _tokenIdList.length ; i++) {\n            string memory ipfsHashAddr = _tokenURIs[_tokenIdList[i]].ipfsHash;\n            result[i] = ipfsHashAddr;\n        }\n\n        return result;\n    }\n\n    function getMyAllTokenids(address owner) public view returns (uint [] memory) {\n        return _myAllTokenIds[owner];\n    }\n\n    function getMyAllTokensHash(address owner) public view returns (string [] memory) {\n        string [] memory result = new string[](_myAllTokenIds[owner].length);\n\n        for(uint i = 0 ; i < _myAllTokenIds[owner].length ; i++) {\n            string memory ipfsHashAddr = _tokenURIs[_myAllTokenIds[owner][i]].ipfsHash;\n            result[i] = ipfsHashAddr;\n        }\n\n        return result;\n    }\n\n    function getAllEnableTokenIds() public view returns (uint [] memory) {\n        return _tokenIdList;\n    }\n\n\n    /**\n     * @dev Base URI for computing {tokenURI}. If set, the resulting URI for each\n     * token will be the concatenation of the `baseURI` and the `tokenId`. Empty\n     * by default, can be overriden in child contracts.\n     */\n\n    function _baseURI() internal view virtual returns (string memory) {\n        return \"https://ipfs.io/ipfs/\";\n    }\n\n    /**\n     * @dev See {IERC721-approve}.\n     */\n\n    function approve(address to, uint256 tokenId) public virtual override {\n        address owner = ERC721.ownerOf(tokenId);\n        require(to != owner, \"ERC721: approval to current owner\");\n\n        require(\n            _msgSender() == owner || isApprovedForAll(owner, _msgSender()),\n            \"ERC721: approve caller is not owner nor approved for all\"\n        );\n\n        _approve(to, tokenId);\n    }\n\n    /**\n     * @dev See {IERC721-getApproved}.\n     */\n    function getApproved(uint256 tokenId) public view virtual override returns (address) {\n        require(_exists(tokenId), \"ERC721: approved query for nonexistent token\");\n\n        return _tokenApprovals[tokenId];\n    }\n\n    /**\n     * @dev See {IERC721-setApprovalForAll}.\n     */\n    function setApprovalForAll(address operator, bool approved) public virtual override {\n        require(operator != _msgSender(), \"ERC721: approve to caller\");\n\n        _operatorApprovals[_msgSender()][operator] = approved;\n        emit ApprovalForAll(_msgSender(), operator, approved);\n    }\n\n    /**\n     * @dev See {IERC721-isApprovedForAll}.\n     */\n\n    function isApprovedForAll(address owner, address operator) public view virtual override returns (bool) {\n        return _operatorApprovals[owner][operator];\n    }\n\n    /**\n     * @dev See {IERC721-transferFrom}.\n     */\n\n    function transferFrom(\n        address from,\n        address to,\n        uint256 tokenId\n    ) public virtual override {\n        //solhint-disable-next-line max-line-length\n        require(_isApprovedOrOwner(_msgSender(), tokenId), \"ERC721: transfer caller is not owner nor approved\");\n\n        _transfer(from, to, tokenId);\n    }\n\n    /**\n     * @dev See {IERC721-safeTransferFrom}.\n     */\n\n    function safeTransferFrom(\n        address from,\n        address to,\n        uint256 tokenId\n    ) public virtual override{\n        safeTransferFrom(from, to, tokenId, \"\");\n    }\n\n    /**\n     * @dev See {IERC721-safeTransferFrom}.\n     */\n\n    function safeTransferFrom(\n        address from,\n        address to,\n        uint256 tokenId,\n        bytes memory _data\n    ) public virtual override {\n        require(_isApprovedOrOwner(_msgSender(), tokenId), \"ERC721: transfer caller is not owner nor approved\");\n        _safeTransfer(from, to, tokenId, _data);\n    }\n\n    /* \n     * @dev Safely transfers `tokenId` token from `from` to `to`, checking first that contract recipients\n     * are aware of the ERC721 protocol to prevent tokens from being forever locked.\n     *\n     * `_data` is additional data, it has no specified format and it is sent in call to `to`.\n     *\n     * This internal function is equivalent to {safeTransferFrom}, and can be used to e.g.\n     * implement alternative mechanisms to perform token transfer, such as signature-based.\n     *\n     * Requirements:\n     *\n     * - `from` cannot be the zero address.\n     * - `to` cannot be the zero address.\n     * - `tokenId` token must exist and be owned by `from`.\n     * - If `to` refers to a smart contract, it must implement {IERC721Receiver-onERC721Received}, which is called upon a safe transfer.\n     *\n     * Emits a {Transfer} event.\n     */\n\n    function _safeTransfer(\n        address from,\n        address to,\n        uint256 tokenId,\n        bytes memory _data\n    ) internal virtual {\n        _transfer(from, to, tokenId);\n        require(_checkOnERC721Received(from, to, tokenId, _data), \"ERC721: transfer to non ERC721Receiver implementer\");\n    }\n\n    /**\n     * @dev Returns whether `tokenId` exists.\n     *\n     * Tokens can be managed by their owner or approved accounts via {approve} or {setApprovalForAll}.\n     *\n     * Tokens start existing when they are minted (`_mint`),\n     * and stop existing when they are burned (`_burn`).\n     */\n    function _exists(uint256 tokenId) public view virtual returns (bool) {\n        return _owners[tokenId] != address(0);\n    }\n\n    /**\n     * @dev Returns whether `spender` is allowed to manage `tokenId`.\n     *\n     * Requirements:\n     *\n     * - `tokenId` must exist.\n     */\n    function _isApprovedOrOwner(address spender, uint256 tokenId) internal view virtual returns (bool) {\n        require(_exists(tokenId), \"ERC721: operator query for nonexistent token\");\n        address owner = ERC721.ownerOf(tokenId);\n        return (spender == owner || getApproved(tokenId) == spender || isApprovedForAll(owner, spender));\n    }\n\n    function curId() public view returns (uint256) {\n        return _tokenIds.current();\n    }\n\n    function mint(address to, string calldata ipfsHash) external {\n        require(to != address(0), \"ERC721: mint to the zero address\");\n        require(msg.sender == to);\n\n        uint256 tokenId = _tokenIds.current();\n        _tokenIds.increment();\n\n        asset storage newAsset = _tokenURIs[tokenId];\n\n        _owners[tokenId] = msg.sender;\n        _balances[to] += 1;\n        _myAllTokenIds[to].push(tokenId);\n\n        _setTokenURI(tokenId, newAsset, ipfsHash);\n        _tokenIdList.push(tokenId);\n        newAsset.tokenIdListIndex = _tokenIdList.length - 1;\n\n        emit Transfer(address(0), to, tokenId);\n    }\n\n    function _setTokenURI(uint256 tokenId, asset storage newAsset, string memory ipfsHash) internal virtual {\n        require(_exists(tokenId), \"ERC721URIStorage: URI set of nonexistent token\");\n        newAsset.ipfsHash = ipfsHash;\n    }\n\n    /**\n     * @dev Destroys `tokenId`.\n     * The approval is cleared when the token is burned.\n     *\n     * Requirements:\n     *\n     * - `tokenId` must exist.\n     *\n     * Emits a {Transfer} event.\n     */\n    function purchase(address buyer, address payable seller, uint256 tokenId) public payable {\n        require(msg.sender == buyer);\n        require(msg.sender != seller, \"you can't buy your own token\");\n        require(seller == ownerOf(tokenId));\n\n        _approve(buyer, tokenId);\n\n        seller.transfer(msg.value);\n\n        safeTransferFrom(seller, buyer, tokenId);\n    }\n\n    function burn(uint256 tokenId) external {\n        require(_exists(tokenId), \"ERC721: operator query for nonexistent token\");\n        address owner = ERC721.ownerOf(tokenId);\n        require(owner == msg.sender, \"msg.sender is NOT the owner of the token\");\n\n        // Clear approvals\n        _approve(address(0), tokenId);\n\n        _balances[owner] -= 1;\n        delete _owners[tokenId];\n\n        for(uint i = 0 ; i < _myAllTokenIds[owner].length ; i++){\n            if(_myAllTokenIds[owner][i] == tokenId) {\n                _myAllTokenIds[owner][i] = _myAllTokenIds[owner][_myAllTokenIds[owner].length - 1];\n                _myAllTokenIds[owner].pop();\n                return;\n            }\n        }\n\n        uint tokenLastIndex = _tokenIdList.length - 1;\n        uint tokenLastIndexItem = _tokenIdList[tokenLastIndex];\n        uint burnableTokenIndex = _tokenURIs[tokenId].tokenIdListIndex;\n\n        _tokenIdList[burnableTokenIndex] = tokenLastIndexItem;\n\n        _tokenIdList.pop();\n        _tokenURIs[tokenLastIndexItem].tokenIdListIndex = burnableTokenIndex;\n\n        delete _tokenURIs[tokenId];\n\n        emit Transfer(owner, address(0), tokenId);\n    }\n\n    /**\n     * @dev Transfers `tokenId` from `from` to `to`.\n     *  As opposed to {transferFrom}, this imposes no restrictions on msg.sender.\n     *\n     * Requirements:\n     *\n     * - `to` cannot be the zero address.\n     * - `tokenId` token must be owned by `from`.\n     *\n     * Emits a {Transfer} event.\n     */\n    function _transfer(\n        address from,\n        address to,\n        uint256 tokenId\n    ) internal virtual {\n        require(ERC721.ownerOf(tokenId) == from, \"ERC721: transfer of token that is not own\");\n        require(to != address(0), \"ERC721: transfer to the zero address\");\n\n        // Clear approvals from the previous owner\n        _approve(address(0), tokenId);\n\n        _balances[from] -= 1;\n        _balances[to] += 1;\n        _owners[tokenId] = to;\n\n        for(uint i = 0 ; i < _myAllTokenIds[from].length ; i++){\n            if(_myAllTokenIds[from][i] == tokenId) {\n                _myAllTokenIds[from][i] = _myAllTokenIds[from][_myAllTokenIds[from].length - 1];\n                _myAllTokenIds[from].pop();\n            }\n        }\n\n        _myAllTokenIds[to].push(tokenId);\n\n        emit Transfer(from, to, tokenId);\n    }\n\n    /**\n     * @dev Approve `to` to operate on `tokenId`\n     *\n     * Emits a {Approval} event.\n     */\n    function _approve(address to, uint256 tokenId) internal virtual {\n        _tokenApprovals[tokenId] = to;\n        emit Approval(ERC721.ownerOf(tokenId), to, tokenId);\n    }\n\n    /**\n     * @dev Internal function to invoke {IERC721Receiver-onERC721Received} on a target address.\n     * The call is not executed if the target address is not a contract.\n     *\n     * @param from address representing the previous owner of the given token ID\n     * @param to target address that will receive the tokens\n     * @param tokenId uint256 ID of the token to be transferred\n     * @param _data bytes optional data to send along with the call\n     * @return bool whether the call correctly returned the expected magic value\n     */\n    function _checkOnERC721Received(\n        address from,\n        address to,\n        uint256 tokenId,\n        bytes memory _data\n    ) private returns (bool) {\n        if (to.isContract()) {\n            try IERC721Receiver(to).onERC721Received(_msgSender(), from, tokenId, _data) returns (bytes4 retval) {\n                return retval == IERC721Receiver.onERC721Received.selector;\n            } catch (bytes memory reason) {\n                if (reason.length == 0) {\n                    revert(\"ERC721: transfer to non ERC721Receiver implementer\");\n                } else {\n                    assembly {\n                        revert(add(32, reason), mload(reason))\n                    }\n                }\n            }\n        } else {\n            return true;\n        }\n    }\n\n}\n\n",
  "sourcePath": "C:/Users/qjarl/Desktop/verson4/contracts/ERC721.sol",
  "compiler": {
    "name": "solc",
    "version": "0.8.0+commit.c7dfd78e.Emscripten.clang"
  },
  "schemaVersion": "3.4.1",
  "updatedAt": "2021-11-25T09:07:24.645Z",
  "networkType": "ethereum",
  "devdoc": {
    "details": "Implementation of https://eips.ethereum.org/EIPS/eip-721[ERC721] Non-Fungible Token Standard, including the Metadata extension, but not including the Enumerable extension, which is available separately as {ERC721Enumerable}.",
    "kind": "dev",
    "methods": {
      "_exists(uint256)": {
        "details": "Returns whether `tokenId` exists. Tokens can be managed by their owner or approved accounts via {approve} or {setApprovalForAll}. Tokens start existing when they are minted (`_mint`), and stop existing when they are burned (`_burn`)."
      },
      "approve(address,uint256)": {
        "details": "See {IERC721-approve}."
      },
      "balanceOf(address)": {
        "details": "See {IERC721-balanceOf}."
      },
      "constructor": {
        "details": "Initializes the contract by setting a `name` and a `symbol` to the token collection."
      },
      "getApproved(uint256)": {
        "details": "See {IERC721-getApproved}."
      },
      "isApprovedForAll(address,address)": {
        "details": "See {IERC721-isApprovedForAll}."
      },
      "name()": {
        "details": "See {IERC721Metadata-name}."
      },
      "ownerOf(uint256)": {
        "details": "See {IERC721-ownerOf}."
      },
      "purchase(address,address,uint256)": {
        "details": "Destroys `tokenId`. The approval is cleared when the token is burned. Requirements: - `tokenId` must exist. Emits a {Transfer} event."
      },
      "safeTransferFrom(address,address,uint256)": {
        "details": "See {IERC721-safeTransferFrom}."
      },
      "safeTransferFrom(address,address,uint256,bytes)": {
        "details": "See {IERC721-safeTransferFrom}."
      },
      "setApprovalForAll(address,bool)": {
        "details": "See {IERC721-setApprovalForAll}."
      },
      "supportsInterface(bytes4)": {
        "details": "See {IERC165-supportsInterface}."
      },
      "symbol()": {
        "details": "See {IERC721Metadata-symbol}."
      },
      "tokenURI(uint256)": {
        "details": "See {IERC721Metadata-tokenURI}."
      },
      "transferFrom(address,address,uint256)": {
        "details": "See {IERC721-transferFrom}."
      }
    },
    "version": 1
  },
  "userdoc": {
    "kind": "user",
    "methods": {},
    "version": 1
  }
}