{
  "contractName": "Purchase",
  "abi": [
    {
      "anonymous": false,
      "inputs": [
        {
          "indexed": false,
          "internalType": "address",
          "name": "buyer",
          "type": "address"
        },
        {
          "indexed": false,
          "internalType": "address",
          "name": "seller",
          "type": "address"
        },
        {
          "indexed": false,
          "internalType": "uint256",
          "name": "tokenId",
          "type": "uint256"
        },
        {
          "indexed": false,
          "internalType": "uint256",
          "name": "price",
          "type": "uint256"
        }
      ],
      "name": "PurchaseSuccess",
      "type": "event"
    },
    {
      "inputs": [
        {
          "internalType": "address",
          "name": "buyer",
          "type": "address"
        },
        {
          "internalType": "address payable",
          "name": "seller",
          "type": "address"
        },
        {
          "internalType": "uint256",
          "name": "tokenId",
          "type": "uint256"
        },
        {
          "internalType": "uint256",
          "name": "price",
          "type": "uint256"
        },
        {
          "internalType": "address",
          "name": "addressOfErc721Contract",
          "type": "address"
        }
      ],
      "name": "purchase",
      "outputs": [],
      "stateMutability": "payable",
      "type": "function",
      "payable": true
    }
  ],
  "bytecode": "0x608060405234801561001057600080fd5b506106ef806100206000396000f3fe60806040526004361061001e5760003560e01c80635606302314610023575b600080fd5b61003d60048036038101906100389190610384565b61003f565b005b81670de0b6b3a7640000346100549190610590565b14610094576040517f08c379a000000000000000000000000000000000000000000000000000000000815260040161008b90610524565b60405180910390fd5b8473ffffffffffffffffffffffffffffffffffffffff163373ffffffffffffffffffffffffffffffffffffffff16146100cc57600080fd5b8373ffffffffffffffffffffffffffffffffffffffff163373ffffffffffffffffffffffffffffffffffffffff16141561013b576040517f08c379a000000000000000000000000000000000000000000000000000000000815260040161013290610544565b60405180910390fd5b8073ffffffffffffffffffffffffffffffffffffffff16636352211e846040518263ffffffff1660e01b81526004016101749190610564565b60206040518083038186803b15801561018c57600080fd5b505afa1580156101a0573d6000803e3d6000fd5b505050506040513d601f19601f820116820180604052508101906101c4919061035b565b73ffffffffffffffffffffffffffffffffffffffff168473ffffffffffffffffffffffffffffffffffffffff16146101fb57600080fd5b8373ffffffffffffffffffffffffffffffffffffffff166108fc349081150290604051600060405180830381858888f19350505050158015610241573d6000803e3d6000fd5b507fc31d3d429a79b5c43cb35ed55b436149974fdb48d48a9c859e1696a5178b9c578585858560405161027794939291906104a8565b60405180910390a161028b84868584610292565b5050505050565b8073ffffffffffffffffffffffffffffffffffffffff166342842e0e8585856040518463ffffffff1660e01b81526004016102cf939291906104ed565b600060405180830381600087803b1580156102e957600080fd5b505af11580156102fd573d6000803e3d6000fd5b5050505050505050565b60008135905061031681610674565b92915050565b60008151905061032b81610674565b92915050565b6000813590506103408161068b565b92915050565b600081359050610355816106a2565b92915050565b60006020828403121561036d57600080fd5b600061037b8482850161031c565b91505092915050565b600080600080600060a0868803121561039c57600080fd5b60006103aa88828901610307565b95505060206103bb88828901610331565b94505060406103cc88828901610346565b93505060606103dd88828901610346565b92505060806103ee88828901610307565b9150509295509295909350565b6104048161060f565b82525050565b610413816105c1565b82525050565b6000610426601d8361057f565b91507f76616c7565206d7573742062652073616d6520776974682070726963650000006000830152602082019050919050565b6000610466601c8361057f565b91507f796f752063616e27742062757920796f7572206f776e20746f6b656e000000006000830152602082019050919050565b6104a281610605565b82525050565b60006080820190506104bd600083018761040a565b6104ca60208301866103fb565b6104d76040830185610499565b6104e46060830184610499565b95945050505050565b6000606082019050610502600083018661040a565b61050f602083018561040a565b61051c6040830184610499565b949350505050565b6000602082019050818103600083015261053d81610419565b9050919050565b6000602082019050818103600083015261055d81610459565b9050919050565b60006020820190506105796000830184610499565b92915050565b600082825260208201905092915050565b600061059b82610605565b91506105a683610605565b9250826105b6576105b5610645565b5b828204905092915050565b60006105cc826105e5565b9050919050565b60006105de826105e5565b9050919050565b600073ffffffffffffffffffffffffffffffffffffffff82169050919050565b6000819050919050565b600061061a82610621565b9050919050565b600061062c82610633565b9050919050565b600061063e826105e5565b9050919050565b7f4e487b7100000000000000000000000000000000000000000000000000000000600052601260045260246000fd5b61067d816105c1565b811461068857600080fd5b50565b610694816105d3565b811461069f57600080fd5b50565b6106ab81610605565b81146106b657600080fd5b5056fea2646970667358221220a23951e16eb999be897be2c511c66ffa5343d48cd339569778f31d4b3204800b64736f6c63430008000033",
  "immutableReferences": {},
  "source": "// SPDX-License-Identifier: MIT\n\npragma solidity ^0.8.0;\n\nimport \"./ERC721.sol\";\n\ncontract Purchase {\n\n    event PurchaseSuccess(address buyer, address seller, uint256 tokenId, uint price);\n\n    function purchase(address buyer, address payable seller, uint256 tokenId, uint256 price, address addressOfErc721Contract) public payable {\n        require(msg.value / 1 ether == price, \"value must be same with price\");\n        require(msg.sender == buyer);\n        require(msg.sender != seller, \"you can't buy your own token\");\n        require(seller == ERC721(addressOfErc721Contract).ownerOf(tokenId));\n\n        seller.transfer(msg.value);\n\n        emit PurchaseSuccess(buyer, seller, tokenId, price);\n\n        _transferFromTranction(seller, buyer, tokenId, addressOfErc721Contract);\n    }\n\n    function _transferFromTranction (\n        address from,\n        address to,\n        uint256 tokenId,\n        address addressOfErc721Contract) private {\n            ERC721(addressOfErc721Contract).safeTransferFrom(from, to, tokenId);\n    }\n    \n}",
  "sourcePath": "C:/Users/qjarl/Desktop/21_hf252-assetAddForm/21_hf252-assetAddForm/contracts/Purchase.sol",
  "compiler": {
    "name": "solc",
    "version": "0.8.0+commit.c7dfd78e.Emscripten.clang"
  },
  "schemaVersion": "3.4.1",
  "updatedAt": "2021-11-10T05:20:52.377Z",
  "networkType": "ethereum",
  "devdoc": {
    "kind": "dev",
    "methods": {},
    "version": 1
  },
  "userdoc": {
    "kind": "user",
    "methods": {},
    "version": 1
  }
}